:400000000080002011000000A9040000A904000008B5044B1A6803F53F5302331A6000F045FA00BFFA46004010B5054C237833B9044B13B10448AFF300800123237010BDDE
:400040000082FF1F000000000C100000084B10B51BB108480849AFF300800848036803B910BD074B002BFBD0BDE81040184700BF000000000C1000000482FF1F0881FF1F17
:40008000000000000F4A13780133DBB213703B2B16D900220B4B1A700B4A13780133DBB213703B2B0CD90022074B1A70074A13780133DBB21370172B02D90022034B1A701D
:4000C000704700BF0386FF1F0586FF1F0486FF1F0022064B1A70064A13780133DBB21370032B02D10022024B1A7070470386FF1F0083FF1F144B1B78012B02D0022B11D07F
:40010000704710B4114C22780132114882FB00011144D317C3EB6113C3EB03139B00D31A23700EE00B48027801320B4B83FB0231D317C3EBA10303EB4303DB00D31A037063
:4001400070475DF8044B70470083FF1F0586FF1F898888880486FF1FABAAAA2A0D4B1B78012B02D0022B0AD070470B4B1B7813B1013BDBB200E03B23074A13707047074BF9
:400180001B7813B1013BDBB200E01723034A1370704700BF0083FF1F0586FF1F0486FF1F08B500F059FE20B142F21072244B5A6011E0234A5368013B536042F2AC629342FA
:4001C00001D1FFF785FF1E4B5B6823B964221C4B5A60FFF77DFF00F04FFE20B142F21072174B9A6011E0164A9368013B936042F2AC62934201D1FFF77DFF114B9B6823B961
:4002000064220F4B9A60FFF775FF00F02DFE20B142F210720A4BDA6008BD094AD368013BD36042F2AC62934201D1FFF797FF044BDB6823B96422024BDA60FFF78FFF08BD4E
:400240000083FF1F10B50446002000F0D5FD002000F0DEFD002000F0E7FD002000F0F0FD0E4B5B6823B10E4B1B7813F0010F14D1032C12D8DFE804F002060A0E012000F037
:40028000BBFD10BD012000F0C3FD10BD012000F0CBFD10BD012000F0D3FD10BD0083FF1F0386FF1F10B5114B1C5C04F0010000F037FEC4F3400000F04BFEC4F3800000F075
:4002C00023FEC4F3C00000F04FFEC4F3001000F0DBFDC4F3401000F0E3FDC4F3801000F02BFEE00900F04CFE10BD00BF1010000000B583B000230193019304E0FFF750FF38
:40030000019B01330193019A41F287339A42F5D903B05DF804FB00BF08B500F0C3FA642000F0A0FA00F082FB002300E00133584A9342FBDD00230DE0B3F10A0204D4FF2A35
:40034000A8BFFF22D2B200E000225249194481F800210133FF2BEFDD0120002141F6FF724FF4804300F090FB4A4C84F8000200F069FC84F804020121FF22002300F07CFC8F
:4003800004F5807194F8040289B246F22A5200F087FC94F8000294F8041200F023FC94F80002012100F0C2FB94F8000200F0DAFB012000214FF48042134600F047FB84F822
:4003C000050200F03FFC84F808020121FF22042300F052FC94F80422D20094F8080245F6A03102F5F042043200F05AFC94F8050294F8081200F0F6FB94F80502012100F013
:4004000095FB94F8050200F0ADFB00F0E3FC3C2000F0A8FC204800F069FD62B60020FFF711FF1E4D28781E4CA4FB0023DB0803EB83035B00C01AC0B2FFF734FFFFF758FF9B
:400440000120FFF7FFFE2878A4FB0030C008FFF729FFFFF74DFF0220FFF7F4FE114D2878A4FB0023DB0803EB83035B00C01AC0B2FFF718FFFFF73CFF0320FFF7E3FE287831
:40048000A4FB0030C008FFF70DFFFFF731FFC5E79F8601000083FF1F850000000386FF1FCDCCCCCC0586FF1FFEE700BF08B5104E104D16E029686B68AC68002204E051F82B
:4004C000040B43F8040B0432A242F8D1E868002203E0002143F8041B04328242F9D11035013E002EE6D100F057FDFFF715FFFEE7010000006C10000008B5134A134B1A6021
:40050000134A136843F40073136000230AE0032B03D8104A52F8231000E00F490F4A42F8231001332F2BF2D90D4B1A780D4B1A700A4A0D4B1A6000F0F3F800F0DDFA0022CC
:400540000A4B1A6008BD00BF0004FA050CED00E014ED00E000000000A90400000080FF1FBC7600400481FF1F08ED00E00081FF1FFEE700BFF0B40022174611E050F8276010
:40058000F3B226F0FF0608E001EB420511F812406D78A5550132013BDBB2002BF4D10137142FEBD9F0BC704708B50A46002100F024FD08BD38B50122294B1A801823294AC8
:4005C0001370132102321180023213706322264B1A801B2202331A70022203F276231A7008224FF040231A70032103F5007319701E4B1B78DBB21E490B701E4B1A8041F2F1
:400600005122023B1A80002419250CE01A4B1B7803F0010343EA440404F003044FF4F07000F05AFA013D0DB1032CEFD115B90320FFF79EFF114B4FF480721A8007221A708F
:4006400000220F490A704820023108701A700222033B1A700B4A137843F00703137038BD80400040824000408840004008010049A146004022420040254200400440004016
:4006800006400040A2430040F8B51B4B1B78DBB21A4E3478E4B21A4F3D78EDB203F00701184A11701B090132137044F00303337045F003033B700223A2F233721370C132A6
:4006C0001370402302F2047213700232137001220D4B1A7020230D490B7003310B7035310B700B4B1A700A2000F0EAFA3D7034704422084B1A70F8BDCF010049F846004009
:40070000F94600406E580040835A0040205B00405B5B00407658004008B500F063FC08BD70B572B600240CE0304963001A1952000A4423445B00C8589188FFF735FF013421
:40074000E4B2062CF0D94FF090402949FFF712FF28480421FFF728FF27480421FFF724FF264A137843F0020313701032137843F002031370224C237843F040032370A2F51A
:400780008632513A137843F0100313701D481E490822FFF7C1FF1D481D490822FFF7BCFF1C481D490822FFF7B7FF1C481C490822FFF7B2FF1B481C490A22FFF7ADFF1B4A1B
:4007C000137843F008031370194E01253570FFF7F1FE81233370174B1D70FFF755FF164821460E22FFF798FF70BD00BF1C10000054000048007600400876004003500140D8
:40080000A0430040C251004028010048F251004030010048125100403801004822510040400100483051004048010048224300400048004004000840B0430040024A1378A0
:4008400043F08003137070477A650040014B1870704700BF0A650040014B1870704700BF4A650040014B1870704700BF2A65004008B50B4A137803F0C00343F00C03137006
:400880002032137843F001031370FF20FFF7DEFFFF20FFF7E1FF7F20FFF7E4FF08BD00BF7A65004008B5054B1B7823B9FFF7E0FF0122024B1A70FFF7C1FF08BD0086FF1F35
:4008C00008B50A280FD00C2802D0082806D102E04FF4805209E04FF4807206E0002000F0EDF9002201E04FF480620021094B198042F2107303FB02F303F6C413064A82FBAF
:400900000302DB17C3EBE223044A1360044B198008BD00BF0E86FF1FAD8BDB680886FF1F0C86FF1F10B500F0DFF804461E4A137843F0010313701032137843F0010313704D
:40094000193A137843F0020313701032137843F00203137002F5AA521132137843F0030313701822114B1A70013B1A7842F040021A701A7802F0FC021A70CE22053B1A7027
:400980000222A3F597530C3B1A70094A137843F0080313700A2000F093F90122054B1A60204600F0A5F810BDAB43004006590040275B004080E200E010B504460A280DD0DF
:4009C0000C2802D0082804D101E0C22207E0422205E0002000F072F9C22200E08222034B1A702046FFF76CFF10BD00BF0259004008B5102000F066F80020072100F07EF964
:400A00000020074900F066F9064A137843F0060313700820FFF7D0FF0022034B1A8008BD490A0000015900401086FF1F08B5054B1B7823B9FFF7DCFF0122024B1A70FFF7C3
:400A400071FF08BD0186FF1F704700BFF0B583B086460F4616461D460A4C0023237000930193184671463A4600F0C8F8207831462A4600F09DF82078022100F087F8207830
:400A800003B0F0BD0C81FF1FF0B583B086460F4616461D460A4C0120207000230093019371463A4600F0AAF8207831462A4600F07FF82078022100F069F8207803B0F0BD6F
:400AC0000D81FF1F034B1A7800F0F80010431870704700BF864000400230800803D000BF01380046FCD17047EFF3108072B6704780F31088704700BF0B4A7F2313708021EF
:400B0000517007E0DA0002F1804202F5F042013BDBB21370002BF5D1DB0003F1804303F5F04300221A7070471081FF1F172815D831B103010A495A5C42F020025A5405E047
:400B4000030107495A5C02F0DF025A540001044A835C43F00103835400207047012070471070004017280CD80001074BC1180A7942F004020A71C25C42F00102C254002031
:400B800070470120704700BF1070004017280BD80001064A835C03F0F10301F0070143EA4101815400207047012070471070004041F6FF73994201D14FF4005141F6FF73AF
:400BC0009A4201D14FF40052172808D8C00000F1804000F5EC408180C280002070470120704700BF172805D8034B03EB0010417200207047012070471070004017281BD894
:400C000010B4C00000F1804404F5EC44D201D2B201F07F01114321709DF804201201D2B203F00F03134363709DF8083003F00F03A3700020E07001E0012070475DF8044B75
:400C4000704700BF10B5FFF74FFF0A4B5B78182B0BD9084A1478013B5370E30003F1804303F5F0431B78137000E0FF24FFF740FF204610BD1081FF1F10F0800F0CD111F463
:400C8000704F0BD1C00000F1804000F5F04001808270C37000207047012070470120704710F0800F08D1C00000F1804000F5F0408180C280002070470120704701BE704770
:400CC00008B5034B1B7A03FB00F0FFF705FF08BD1881FF1F70B504460E46074B1D681F2802D90020FFF7EAFF04F01F04103455F8240045F8246070BD08ED00E038B504466F
:400D00000D46072902D90020FFF7D8FF1F2C02D90020FFF7D3FF04F01F0000F1604000F564406D01EDB2057038BD00BF054A137843F0010313701032137843F001031370CC
:400D4000704700BFA8430040054B1A7802F0FD021A701A7800F0020010431870704700BF20580040014B1870704700BF805B0040064B1B78C3F3810303F19243063393F8D8
:400D80002031DBB2024A1370704700BF205800400846004008B5064B1A7802F0F3021A701A7800F00C0010431870FFF7E1FF08BD2058004008B50023054A13700132137095
:400DC0000420FFF7E7FF0220FFF7BEFF08BD00BF2058004008B5074B1B7823B9FFF7EAFF0122044B1A70FFF7A1FF1920FFF7BAFF08BD00BF0286FF1F044A137803F0EF0323
:400E0000000100F0100018431070704710510040044A137803F0F703C00000F0080018431070704710510040044A137803F07F03C001C0B203431370704700BF105100406C
:400E4000044A137803F0BF03800100F0400018431070704710510040024B1878C0F3C000704700BF31510040024B1878C0F34010704700BF31510040024B1878C0F30010C0
:400E8000704700BF31510040044A137803F0EF03000100F0100018431070704720510040044A137803F0F703C00000F0080018431070704720510040014B1B6858647047F5
:400EC00008ED00E04001C0B2014B1870704700BF01E400E00222014B1A60704700E100E00222014B1A60704780E100E010B50446FFF7F6FF2046FFF7DFFF0720FFF7E2FFE5
:400F0000FFF7E8FF10BD00BF044A137803F07F03C001C0B203431370704700BF20510040044A137803F0DF03400100F02000184310707047C0510040044A137803F0FB032B
:400F4000800000F0040018431070704720510040044A137803F0EF03000100F01000184310707047C0510040044A137803F0BF03800100F040001843107070472051004096
:400F8000044A137803F0FD03400000F00200184310707047205100400E4B70B51E460E4C0025E41AA410A54204D056F8253098470135F8E700F048F8084B094C1E46E41A51
:400FC000A4100025A54204D056F8253098470135F8E770BD5410000054100000541000005C10000010B5431E0A44914204D011F8014B03F8014FF8E710BD03460244934236
:4010000002D003F8011BFAE77047000000000000D744CBCE5C9E9FC4DFDE000000510040100040510040300000000140001000140140000800400140000A004C01400002F7
:401040000050014020000000F8B500BFF8BC08BC9E4670474D000000F9040000F8B500BFF8BC08BC9E46704729000000801000000881FF1F20000000F00400000000000003
:4010800000000000FFFF00007F800000030000000000E02EC05D00001800000000366E01000000000000000000000000000000000000000000000000000000000000000048
:4010C00000000000000000000000000000000000000000000000000000000000000000000000000000000000000000000000000000000000000000000000000000000000F0
:4011000000000000000000000000000000000000000000000000000000000000000000000000000000000000000000000000000000000000000000000000000000000000AF
:40114000000000000000000000000000000000000000000000000000000000000000000000000000000000000000000000000000000000000000000000000000000000006F
:40118000000000000000000000000000000000000000000000000000000000000000000000000000000000000000000000000000000000000000000000000000000000002F
:020000040003F7
:0200000480007A
:4000000001520040015B0040010501400107014001090140010B014001150140201A0140151B01400840014003410140044201400343014005460140044701400448014065
:4000400001490140024C0140074D0140025001400251014061802784E240EE04EE04E240EC200605120424012E023004320134024020410545014720482149FF4AFF4BFF40
:400080004DA04F045018528058045A045B045F01604062C06440654066C068C06AC06CC06EC0000409021020134018141B024004482250025102734080108702C004C208E8
:4000C000C405D004D208E008E401EC201304332037803B043C40C410CC30CE6094409F80A7208C4094409F80A7209F80AB20EE201A201B048E10C608E20242204401AB049F
:40010000D006208027809F80C8C0B0409C019E207004800486209E20B001DC01EC0410011C01000F100A000000B0B00080000000000000000000020000D8D80000000000ED
:4001400000DEDE0000000000380000380000000002000000000000000000000000000000000000000000000000000000000000000000000000000000000000000000000051
:40018000000000000000000000000000000000000000000000000000000000000000000000000000000000000000000000000000000000000000000000000000000000003F
:4001C00000000000000000000000000000000000000000000000000000000000000000000000000000000000000000000000000000000000000000000000000000000000FF
:4002000000000000000000000000000000000000000000000000000000000000000000000000000000000000000000000000000000000000000000000000000000000000BE
:40024000000000000000000000000000000000000000000000000000000000000000000000000000000000000000000000000000000000000000000000000000000000007E
:0200000490006A
:0400000000004005B7
:0200000490105A
:04000000BC90ACAF55
:0200000490303A
:020000004E327E
:0200000490402A
:4000000000000000000000000000000000000000000000000000000000000000000000000000000000000000000000000000000000000000000000000000000000000000C0
:400040000000000000000000000000000000000000000000000000000000000000000000000000000000000000000000000000000000000000000000000000000000000080
:400080000000000000000000000000000000000000000000000000000000000000000000000000000000000000000000000000000000000000000000000000000000000040
:4000C0000000000000000000000000000000000000000000000000000000000000000000000000000000000000000000000000000000000000000000000000000000000000
:0200000490501A
:0C00000000012E11E06900012E182E9B5B
:00000001FF