:400000000080002011000000890100008901000008B5044B1A6803F53F5302331A6000F0B5F800BFFA46004010B5054C237833B9044B13B10448AFF300800123237010BDB6
:400040000082FF1F000000009C0D0000084B10B51BB108480849AFF300800848036803B910BD074B002BFBD0BDE81040184700BF000000009C0D00000482FF1F0881FF1FFD
:400080000000000008B500F09BFA642000F078FA00F05AFB002300E00133394A9342FBDD00230BE013F10A0204D4FF2AA8BFFF22D2B200E000223349CA540133FF2BF1DD79
:4000C0000120002141F6FF724FF4804300F06AFB2C4C84F8000100F045FC84F804010121FF22002300F058FC94F80401A1B246F22A5200F065FC94F8000194F8041100F063
:4001000001FC94F80001012100F0A0FB94F8000100F0B8FB012000214FF48042134600F023FB84F8050100F01DFC84F808010121FF22042300F030FC94F80421D20094F805
:40014000080145F6A03102F5F042043200F038FC94F8050194F8081100F0D4FB94F80501012100F073FB94F8050100F08BFB00F0C1FC3C2000F086FC00F0CEFC62B6FEE7A5
:400180009F8601000083FF1FFEE700BF08B5104E104D16E029686B68AC68002204E051F8040B43F8040B0432A242F8D1E868002203E0002143F8041B04328242F9D110358A
:4001C000013E002EE6D100F0AFFDFFF75BFFFEE701000000F00D000008B5134A134B1A60134A136843F40073136000230AE0032B03D8104A52F8231000E00F490F4A42F86D
:40020000231001332F2BF2D90D4B1A780D4B1A700A4A0D4B1A6000F0F9F800F0FDFA00220A4B1A6008BD00BF0004FA050CED00E014ED00E000000000890100000080FF1F1E
:40024000BC7600400481FF1F08ED00E00081FF1FFEE700BFF0B40022174611E050F82760F3B226F0FF0608E001EB420511F812406D78A5550132013BDBB2002BF4D1013735
:400280001C2FEBD9F0BC704708B50A46002100F07CFD08BD38B501222C4B1A8018232C4A13701321023211800232137040F2ED21023211800232137047F22F52254B1A80EB
:4002C000192502331D70022203F272231A7008224FF040231A70032103F5007319701E4B1B78DBB21D490B701D4B1A8041F25122023B1A8000240CE01A4B1B7803F0010370
:4003000043EA440404F003044FF4F07000F074FA013D0DB1032CEFD115B90320FFF798FF114B4FF480721A8007221A7000220F490A704820023108701A700222033B1A7088
:400340000B4A137843F00F03137038BD80400040824000408C40004008010049A146004022420040254200400440004006400040A2430040F8B51B4B1B78DBB21A4E347898
:40038000E4B21A4F3D78EDB203F00701184A11701B090132137044F00303337045F003033B700223A2F233721370C1321370402302F2047213700232137001220D4B1A700C
:4003C00020230D490B7003310B7035310B700B4B1A700A2000F004FB3D7034704422084B1A70F8BDCF010049F8460040F94600406E580040835A0040205B00405B5B00402D
:400400007658004008B500F0B5FC08BD70B572B600240CE0384963001A1952000A4423445B00C8589188FFF72FFF0134E4B2062CF0D94FF090403149FFF70CFF304804216B
:40044000FFF722FF2F480421FFF71EFF2E480421FFF71AFF2D480421FFF716FF2C480421FFF712FF2B480421FFF70EFF2A4A137843F0020313701032137843F002031370EA
:40048000264C237843F040032370A2F58632513A137843F010031370214822490822FFF7B1FF214821490822FFF7ACFF204821490822FFF7A7FF204820490822FFF7A2FF8C
:4004C0001F4820490A22FFF79DFF1F4A137843F0080313701D4E01253570FFF7DBFE812333701B4B1D70FFF745FF1A4821460E22FFF788FF70BD00BFA00D00007400004875
:4005000000760040087600401076004018760040207600402876004003500140A0430040C251004058040048F251004060040048125100406804004822510040700400485C
:400540003051004078040048224300400048004004000840B0430040024A137843F08003137070477A650040014B1870704700BF0A650040014B1870704700BF4A65004032
:40058000014B1870704700BF2A65004008B50B4A137803F0C00343F00C0313702032137843F001031370FF20FFF7DEFFFF20FFF7E1FF7F20FFF7E4FF08BD00BF7A65004071
:4005C00008B5054B1B7823B9FFF7E0FF0122024B1A70FFF7C1FF08BD0085FF1F08B50A280FD00C2802D0082806D102E04FF4805209E04FF4807206E0002000F0EFF90022A2
:4006000001E04FF480620021094B198042F2107303FB02F303F6C413064A82FB0302DB17C3EBE223044A1360044B198008BD00BF1E85FF1FAD8BDB681885FF1F1C85FF1FD2
:4006400010B500F0E1F804461E4A137843F0010313701032137843F001031370193A137843F0020313701032137843F00203137002F5AA521132137843F003031370182296
:40068000114B1A70013B1A7842F040021A701A7802F0FC021A70CE22053B1A700222A3F597530C3B1A70094A137843F0080313700A2000F095F90122054B1A60204600F0C1
:4006C000A7F810BDAB43004006590040275B004080E200E010B504460A280DD00C2802D0082804D101E0C22207E0422205E0002000F074F9C22200E08222034B1A7020467C
:40070000FFF76CFF10BD00BF0259004008B5102000F066F80020072100F080F90020074900F068F9064A137843F0060313700820FFF7D0FF0022034B1A8008BD65070000C2
:40074000015900402085FF1F08B5054B1B7823B9FFF7DCFF0122024B1A70FFF771FF08BD0185FF1F704700BFF0B583B086460F4616461D460A4C0023237000930193184647
:4007800071463A4600F0CAF8207831462A4600F09FF82078022100F089F8207803B0F0BD0C81FF1FF0B583B086460F4616461D460A4C0120207000230093019371463A463B
:4007C00000F0ACF8207831462A4600F081F82078022100F06BF8207803B0F0BD0D81FF1F034B1A7800F0F80010431870704700BF86400040000000000230800803D000BF60
:4008000001380046FCD17047EFF3108072B6704780F31088704700BF0B4A7F2313708021517007E0DA0002F1804202F5F042013BDBB21370002BF5D1DB0003F1804303F5A1
:40084000F04300221A7070471081FF1F172815D831B103010A495A5C42F020025A5405E0030107495A5C02F0DF025A540001044A835C43F0010383540020704701207047BB
:400880001070004017280CD80001074BC1180A7942F004020A71C25C42F00102C254002070470120704700BF1070004017280BD80001064A835C03F0F10301F0070143EAFD
:4008C0004101815400207047012070471070004041F6FF73994201D14FF4005141F6FF739A4201D14FF40052172808D8C00000F1804000F5EC408180C280002070470120B0
:40090000704700BF172805D8034B03EB0010417200207047012070471070004017281BD810B4C00000F1804404F5EC44D201D2B201F07F01114321709DF804201201D2B226
:4009400003F00F03134363709DF8083003F00F03A3700020E07001E0012070475DF8044B704700BF10B5FFF74FFF0A4B5B78182B0BD9084A1478013B5370E30003F1804352
:4009800003F5F0431B78137000E0FF24FFF740FF204610BD1081FF1F10F0800F0CD111F4704F0BD1C00000F1804000F5F04001808270C3700020704701207047012070470D
:4009C00010F0800F08D1C00000F1804000F5F0408180C280002070470120704701BE704708B5034B1B7A03FB00F0FFF705FF08BD1881FF1F70B504460E46074B1D681F28AC
:400A000002D90020FFF7EAFF04F01F04103455F8240045F8246070BD08ED00E038B504460D46072902D90020FFF7D8FF1F2C02D90020FFF7D3FF04F01F0000F1604000F524
:400A400064406D01EDB2057038BD00BF054A137843F0010313701032137843F001031370704700BFA8430040054B1A7802F0FD021A701A7800F0020010431870704700BFAE
:400A800020580040014B1870704700BF805B0040064B1B78C3F3810303F19243063393F82031DBB2024A1370704700BF205800400846004008B5064B1A7802F0F3021A70F4
:400AC0001A7800F00C0010431870FFF7E1FF08BD2058004008B50023054A1370013213700420FFF7E7FF0220FFF7BEFF08BD00BF2058004008B5074B1B7823B9FFF7EAFF64
:400B00000122044B1A70FFF7A1FF1920FFF7BAFF08BD00BF0285FF1F10B5012000214FF48042134600F086F8414C2070FFF71AFF20710121FF220023FFF72EFF207946F228
:400B4000084146F27942FFF73BFF20782179FFF7D9FE20780121FFF779FE2078FFF792FE012000214FF48042134600F081F86071FFF7F8FE20720121FF220023FFF70CFF06
:400B8000207A46F2084146F27942FFF719FF6079217AFFF7B7FE60790121FFF757FE6079FFF770FE012000214FF48042134600F07DF86072FFF7D6FE20730121FF220023DD
:400BC000FFF7EAFE207B46F2085146F27942FFF7F7FE607A217BFFF795FE607A0121FFF735FE607AFFF74EFE012000214FF48042134600F079F86073FFF7B4FE207401219B
:400C0000FF220023FFF7C8FE207C46F2085146F27942FFF7D5FE607B217CFFF773FE607B0121FFF713FE607BFFF72CFE10BD00BF0485FF1FF0B583B086460F4616461D4602
:400C40000A4C0520207000230093019371463A46FFF764FE207831462A46FFF739FE20780221FFF723FE207803B0F0BD2881FF1FF0B583B086460F4616461D460A4C042021
:400C8000207000230093019371463A46FFF746FE207831462A46FFF71BFE20780221FFF705FE207803B0F0BD2981FF1FF0B583B086460F4616461D460A4C03202070002303
:400CC0000093019371463A46FFF728FE207831462A46FFF7FDFD20780221FFF7E7FD207803B0F0BD2A81FF1FF0B583B084468E4617461E460B4C0225257000230093019321
:400D0000284661467246FFF709FE207839463246FFF7DEFD20782946FFF7C8FD207803B0F0BD00BF2B81FF1F0E4B70B51E460E4C0025E41AA410A54204D056F825309847F6
:400D40000135F8E700F042F8084B094C1E46E41AA4100025A54204D056F8253098470135F8E770BDD80D0000D80D0000D80D0000E00D000010B5431E0A44914204D011F812
:400D8000014B03F8014FF8E710BD03460244934202D003F8011BFAE7704700000000000000510040100040510040300000000140001000140140000800400140000A004CE4
:400DC000014000020050014020000000F8B500BFF8BC08BC9E4670474D000000D9010000F8B500BFF8BC08BC9E46704729000000000E00000881FF1F28000000F8030000D9
:400E000000000000FFFF00007F8000003F0000000000E02EC05D00001800000000366E01FFFFFFFF0000000000000000000000000000000000000000000000000000000092
:400E40000000000000000000000000000000000000000000000000000000000000000000000000000000000000000000000000000000000000000000000000000000000072
:400E80000000000000000000000000000000000000000000000000000000000000000000000000000000000000000000000000000000000000000000000000000000000032
:400EC00000000000000000000000000000000000000000000000000000000000000000000000000000000000000000000000000000000000000000000000000000000000F2
:400F000000000000000000000000000000000000000000000000000000000000000000000000000000000000000000000000000000000000000000000000000000000000B1
:020000040003F7
:0200000480007A
:4000000006520040015B00400164004003650040020301403B08014032090140050B0140030D01400315014002170140431801403B190140471A0140311B01400C400140B7
:40004000094101400342014003430140024401400B4501400B4601400C470140074801400B4901400F4C01400D4D0140045001400351014008980958104211C66080619029
:40008000278488028801897F8B7FE210E60402020302040207010A040B100D010F201008121613081502161019041C011E08220824012740280429082B162E202F04300119
:4000C000310132203320341E351E374038023E113F10401341044620480A49FF4AFF4BFF56025724580459045A045B045C325D225F0162406330664067406A406BA86E8027
:40010000DB04DF01041105040E400F21165017611C101D2A254427482C012E082F08350437213C013D883F204401450247084F015610662068016A026B146E406F0871109E
:40014000720273508310860187108A02940897409D10A401C070C2B0C4F0CA70CCE0CEF0D0D0D820E00CE40284018B408D109408E4088C04E210E604E442E810EC20E2A055
:40018000E62002020B020E08110112041C0124012F0130083202330234013501360438203E103F10403241064620480A49FF4AFF4BFF5602572C580459045A045B045C2222
:4001C0005D225F0162406330664067406A406BA86E808102830485048602870293019901A004A201A404A601B102B204B304B401B501B602BE14BF05D602D72CD804D9041E
:40020000DB04DC32DD20DF010004040105400E400F0110A01610180919101B081D041E421F1220042101220627242F0231023220360139053B303C104220430445284F1142
:4002400056106101674068A06905734076408A068B088D10901094099D049E689F20A128A710B001B108B704C094C290C42CCA10CC85CE23D060D220D881E2A0E620060568
:4002800012021B0124042A0130013101320434024020410645014702481149FF4AFF4BFF4DA04F0450185280580459045A045B045C305F01604062C06440654066C068C04D
:4002C0006AC06CC06EC0820486028C018F029604A201AF01B002B404B502B601B701BE10C062C620C808C9FFCAFFCBFFD602D804D904DA04DB04DC33DD22DF01E060E1185B
:40030000E240E340E460E510E680E7040004044106200A400D0810281702188419041C401D601F022102262027022F0232203F404004452048284F20500857107240750119
:40034000810487408C408E2090019D41A108A502A620A710B101B608C0B4C228C416CA10CC04CE10D024D224E441E810EC20130431103B043C403D02400860406110C410B9
:40038000CC10CEE0D01039043D8081108D019C089D10A501CE60E62095049C08A54095049C08A5407B01DC015380580859805D20638067208210A701D405D606D8031A20FB
:4003C000870189208F80962097209C089DA0A7C1C608E00643044540834085808710880897209C089D80A740D006E00123208808894495049C08A540C84005200B400C023A
:4004000087408C029D20B320B520C080C230E4405D085E806020641088208A408D089F04A008A540B408D605D803E007EC0870087C8080808F049F04A008B010B140DC0111
:40044000DE04E408E804EC04000C0C0C100D1C0D000310AA110A000000B0B000B0000000000000000000020000D8D800D800000000DEDE00DE0000003800003800000000EC
:40048000020000000000000000000000000000000000000000000000000000000000000000000000000000000000000000000000000000000000000000000000000000003A
:4004C00000000000000000000000000000000000000000000000000000000000000000000000000000000000000000000000000000000000000000000000000000000000FC
:4005000000000000000000000000000000000000000000000000000000000000000000000000000000000000000000000000000000000000000000000000000000000000BB
:40054000000000000000000000000000000000000000000000000000000000000000000000000000000000000000000000000000000000000000000000000000000000007B
:40058000000000000000000000000000000000000000000000000000000000000000000000000000000000000000000000000000000000000000000000000000000000003B
:0200000490006A
:0400000000004005B7
:0200000490105A
:04000000BC90ACAF55
:0200000490303A
:020000007FA0DF
:0200000490402A
:4000000000000000000000000000000000000000000000000000000000000000000000000000000000000000000000000000000000000000000000000000000000000000C0
:400040000000000000000000000000000000000000000000000000000000000000000000000000000000000000000000000000000000000000000000000000000000000080
:400080000000000000000000000000000000000000000000000000000000000000000000000000000000000000000000000000000000000000000000000000000000000040
:4000C0000000000000000000000000000000000000000000000000000000000000000000000000000000000000000000000000000000000000000000000000000000000000
:0200000490501A
:0C00000000012E11E06900012E186009BB
:00000001FF